{
  "contractName": "DStorage",
  "abi": [
    {
      "inputs": [],
      "payable": false,
      "stateMutability": "nonpayable",
      "type": "constructor"
    },
    {
      "anonymous": false,
      "inputs": [
        {
          "indexed": true,
          "internalType": "uint256",
          "name": "fileId",
          "type": "uint256"
        },
        {
          "indexed": true,
          "internalType": "address",
          "name": "uploader",
          "type": "address"
        },
        {
          "indexed": true,
          "internalType": "address",
          "name": "recipient",
          "type": "address"
        },
        {
          "indexed": false,
          "internalType": "uint256",
          "name": "timestamp",
          "type": "uint256"
        }
      ],
      "name": "AccessRevoked",
      "type": "event"
    },
    {
      "anonymous": false,
      "inputs": [
        {
          "indexed": true,
          "internalType": "uint256",
          "name": "fileId",
          "type": "uint256"
        },
        {
          "indexed": true,
          "internalType": "address",
          "name": "accessor",
          "type": "address"
        },
        {
          "indexed": false,
          "internalType": "uint256",
          "name": "timestamp",
          "type": "uint256"
        }
      ],
      "name": "FileAccessed",
      "type": "event"
    },
    {
      "anonymous": false,
      "inputs": [
        {
          "indexed": true,
          "internalType": "uint256",
          "name": "fileId",
          "type": "uint256"
        },
        {
          "indexed": true,
          "internalType": "address",
          "name": "uploader",
          "type": "address"
        },
        {
          "indexed": true,
          "internalType": "address",
          "name": "recipient",
          "type": "address"
        },
        {
          "indexed": false,
          "internalType": "uint256",
          "name": "timestamp",
          "type": "uint256"
        }
      ],
      "name": "FileShared",
      "type": "event"
    },
    {
      "anonymous": false,
      "inputs": [
        {
          "indexed": true,
          "internalType": "uint256",
          "name": "fileId",
          "type": "uint256"
        },
        {
          "indexed": false,
          "internalType": "string",
          "name": "fileHash",
          "type": "string"
        },
        {
          "indexed": false,
          "internalType": "uint256",
          "name": "fileSize",
          "type": "uint256"
        },
        {
          "indexed": false,
          "internalType": "string",
          "name": "fileType",
          "type": "string"
        },
        {
          "indexed": false,
          "internalType": "string",
          "name": "fileName",
          "type": "string"
        },
        {
          "indexed": false,
          "internalType": "string",
          "name": "fileDescription",
          "type": "string"
        },
        {
          "indexed": false,
          "internalType": "uint256",
          "name": "uploadTime",
          "type": "uint256"
        },
        {
          "indexed": true,
          "internalType": "address",
          "name": "uploader",
          "type": "address"
        },
        {
          "indexed": false,
          "internalType": "uint256",
          "name": "accessType",
          "type": "uint256"
        },
        {
          "indexed": false,
          "internalType": "bool",
          "name": "isEncrypted",
          "type": "bool"
        }
      ],
      "name": "FileUploaded",
      "type": "event"
    },
    {
      "constant": true,
      "inputs": [
        {
          "internalType": "uint256",
          "name": "",
          "type": "uint256"
        },
        {
          "internalType": "address",
          "name": "",
          "type": "address"
        }
      ],
      "name": "fileAccess",
      "outputs": [
        {
          "internalType": "bool",
          "name": "",
          "type": "bool"
        }
      ],
      "payable": false,
      "stateMutability": "view",
      "type": "function"
    },
    {
      "constant": true,
      "inputs": [],
      "name": "fileCount",
      "outputs": [
        {
          "internalType": "uint256",
          "name": "",
          "type": "uint256"
        }
      ],
      "payable": false,
      "stateMutability": "view",
      "type": "function"
    },
    {
      "constant": true,
      "inputs": [
        {
          "internalType": "uint256",
          "name": "",
          "type": "uint256"
        },
        {
          "internalType": "uint256",
          "name": "",
          "type": "uint256"
        }
      ],
      "name": "fileRecipients",
      "outputs": [
        {
          "internalType": "address",
          "name": "",
          "type": "address"
        }
      ],
      "payable": false,
      "stateMutability": "view",
      "type": "function"
    },
    {
      "constant": true,
      "inputs": [
        {
          "internalType": "uint256",
          "name": "",
          "type": "uint256"
        }
      ],
      "name": "files",
      "outputs": [
        {
          "internalType": "uint256",
          "name": "fileId",
          "type": "uint256"
        },
        {
          "internalType": "string",
          "name": "fileHash",
          "type": "string"
        },
        {
          "internalType": "uint256",
          "name": "fileSize",
          "type": "uint256"
        },
        {
          "internalType": "string",
          "name": "fileName",
          "type": "string"
        },
        {
          "internalType": "string",
          "name": "fileDescription",
          "type": "string"
        },
        {
          "internalType": "uint256",
          "name": "uploadTime",
          "type": "uint256"
        },
        {
          "internalType": "address",
          "name": "uploader",
          "type": "address"
        },
        {
          "internalType": "uint256",
          "name": "accessType",
          "type": "uint256"
        },
        {
          "internalType": "bool",
          "name": "isEncrypted",
          "type": "bool"
        }
      ],
      "payable": false,
      "stateMutability": "view",
      "type": "function"
    },
    {
      "constant": true,
      "inputs": [],
      "name": "name",
      "outputs": [
        {
          "internalType": "string",
          "name": "",
          "type": "string"
        }
      ],
      "payable": false,
      "stateMutability": "view",
      "type": "function"
    },
    {
      "constant": true,
      "inputs": [
        {
          "internalType": "address",
          "name": "",
          "type": "address"
        },
        {
          "internalType": "uint256",
          "name": "",
          "type": "uint256"
        }
      ],
      "name": "sharedWithUser",
      "outputs": [
        {
          "internalType": "uint256",
          "name": "",
          "type": "uint256"
        }
      ],
      "payable": false,
      "stateMutability": "view",
      "type": "function"
    },
    {
      "constant": true,
      "inputs": [
        {
          "internalType": "address",
          "name": "",
          "type": "address"
        },
        {
          "internalType": "uint256",
          "name": "",
          "type": "uint256"
        }
      ],
      "name": "userFiles",
      "outputs": [
        {
          "internalType": "uint256",
          "name": "",
          "type": "uint256"
        }
      ],
      "payable": false,
      "stateMutability": "view",
      "type": "function"
    },
    {
      "constant": false,
      "inputs": [
        {
          "internalType": "string",
          "name": "_fileHash",
          "type": "string"
        },
        {
          "internalType": "uint256",
          "name": "_fileSize",
          "type": "uint256"
        },
        {
          "internalType": "string",
          "name": "_fileName",
          "type": "string"
        },
        {
          "internalType": "string",
          "name": "_fileDescription",
          "type": "string"
        },
        {
          "internalType": "uint256",
          "name": "_accessType",
          "type": "uint256"
        },
        {
          "internalType": "bool",
          "name": "_isEncrypted",
          "type": "bool"
        }
      ],
      "name": "uploadFile",
      "outputs": [
        {
          "internalType": "uint256",
          "name": "",
          "type": "uint256"
        }
      ],
      "payable": false,
      "stateMutability": "nonpayable",
      "type": "function"
    },
    {
      "constant": false,
      "inputs": [
        {
          "internalType": "uint256",
          "name": "_fileId",
          "type": "uint256"
        },
        {
          "internalType": "address[]",
          "name": "_recipients",
          "type": "address[]"
        }
      ],
      "name": "addRecipients",
      "outputs": [],
      "payable": false,
      "stateMutability": "nonpayable",
      "type": "function"
    },
    {
      "constant": true,
      "inputs": [
        {
          "internalType": "uint256",
          "name": "_fileId",
          "type": "uint256"
        },
        {
          "internalType": "address",
          "name": "_user",
          "type": "address"
        }
      ],
      "name": "hasAccess",
      "outputs": [
        {
          "internalType": "bool",
          "name": "",
          "type": "bool"
        }
      ],
      "payable": false,
      "stateMutability": "view",
      "type": "function"
    },
    {
      "constant": false,
      "inputs": [
        {
          "internalType": "uint256",
          "name": "_fileId",
          "type": "uint256"
        }
      ],
      "name": "accessFile",
      "outputs": [],
      "payable": false,
      "stateMutability": "nonpayable",
      "type": "function"
    },
    {
      "constant": false,
      "inputs": [
        {
          "internalType": "uint256",
          "name": "_fileId",
          "type": "uint256"
        },
        {
          "internalType": "address",
          "name": "_recipient",
          "type": "address"
        }
      ],
      "name": "shareFile",
      "outputs": [],
      "payable": false,
      "stateMutability": "nonpayable",
      "type": "function"
    },
    {
      "constant": false,
      "inputs": [
        {
          "internalType": "uint256",
          "name": "_fileId",
          "type": "uint256"
        },
        {
          "internalType": "address",
          "name": "_recipient",
          "type": "address"
        }
      ],
      "name": "revokeAccess",
      "outputs": [],
      "payable": false,
      "stateMutability": "nonpayable",
      "type": "function"
    },
    {
      "constant": true,
      "inputs": [
        {
          "internalType": "uint256",
          "name": "_fileId",
          "type": "uint256"
        }
      ],
      "name": "getFileRecipients",
      "outputs": [
        {
          "internalType": "address[]",
          "name": "",
          "type": "address[]"
        }
      ],
      "payable": false,
      "stateMutability": "view",
      "type": "function"
    },
    {
      "constant": true,
      "inputs": [
        {
          "internalType": "address",
          "name": "_user",
          "type": "address"
        }
      ],
      "name": "getUserFiles",
      "outputs": [
        {
          "internalType": "uint256[]",
          "name": "",
          "type": "uint256[]"
        }
      ],
      "payable": false,
      "stateMutability": "view",
      "type": "function"
    },
    {
      "constant": true,
      "inputs": [
        {
          "internalType": "address",
          "name": "_user",
          "type": "address"
        }
      ],
      "name": "getSharedFiles",
      "outputs": [
        {
          "internalType": "uint256[]",
          "name": "",
          "type": "uint256[]"
        }
      ],
      "payable": false,
      "stateMutability": "view",
      "type": "function"
    },
    {
      "constant": true,
      "inputs": [],
      "name": "getPublicFiles",
      "outputs": [
        {
          "internalType": "uint256[]",
          "name": "",
          "type": "uint256[]"
        }
      ],
      "payable": false,
      "stateMutability": "view",
      "type": "function"
    }
  ],
  "bytecode": "0x60806040526040518060400160405280600881526020017f4453746f7261676500000000000000000000000000000000000000000000000081525060009080519060200190620000519291906200006b565b5060006001553480156200006457600080fd5b506200011a565b828054600181600116156101000203166002900490600052602060002090601f016020900481019282601f10620000ae57805160ff1916838001178555620000df565b82800160010185558215620000df579182015b82811115620000de578251825591602001919060010190620000c1565b5b509050620000ee9190620000f2565b5090565b6200011791905b8082111562000113576000816000905550600101620000f9565b5090565b90565b61206b806200012a6000396000f3fe608060405234801561001057600080fd5b506004361061010b5760003560e01c806390aaef60116100a2578063b98e644d11610071578063b98e644d146107e0578063ced141981461083f578063cfe3ceb5146108a5578063d9a5ec1b14610928578063f4c714b4146109765761010b565b806390aaef60146104e55780639e9164e214610513578063a8759ee014610730578063aaccd05a146107925761010b565b806328919fde116100de57806328919fde1461033d57806343953519146103ff5780634b9740071461041d578063718f38a6146104835761010b565b806306fdde03146101105780630c8b7574146101935780631d1524221461020b5780631fc37922146102a4575b600080fd5b610118610b4f565b6040518080602001828103825283818151815260200191508051906020019080838360005b8381101561015857808201518184015260208101905061013d565b50505050905090810190601f1680156101855780820380516001836020036101000a031916815260200191505b509250505060405180910390f35b6101c9600480360360408110156101a957600080fd5b810190808035906020019092919080359060200190929190505050610bed565b604051808273ffffffffffffffffffffffffffffffffffffffff1673ffffffffffffffffffffffffffffffffffffffff16815260200191505060405180910390f35b61024d6004803603602081101561022157600080fd5b81019080803573ffffffffffffffffffffffffffffffffffffffff169060200190929190505050610c38565b6040518080602001828103825283818151815260200191508051906020019060200280838360005b83811015610290578082015181840152602081019050610275565b505050509050019250505060405180910390f35b6102e6600480360360208110156102ba57600080fd5b81019080803573ffffffffffffffffffffffffffffffffffffffff169060200190929190505050610ccf565b6040518080602001828103825283818151815260200191508051906020019060200280838360005b8381101561032957808201518184015260208101905061030e565b505050509050019250505060405180910390f35b6103fd6004803603604081101561035357600080fd5b81019080803590602001909291908035906020019064010000000081111561037a57600080fd5b82018360208201111561038c57600080fd5b803590602001918460208302840111640100000000831117156103ae57600080fd5b919080806020026020016040519081016040528093929190818152602001838360200280828437600081840152601f19601f820116905080830192505050505050509192919290505050610d66565b005b610407611081565b6040518082815260200191505060405180910390f35b6104696004803603604081101561043357600080fd5b8101908080359060200190929190803573ffffffffffffffffffffffffffffffffffffffff169060200190929190505050611087565b604051808215151515815260200191505060405180910390f35b6104cf6004803603604081101561049957600080fd5b81019080803573ffffffffffffffffffffffffffffffffffffffff169060200190929190803590602001909291905050506110b6565b6040518082815260200191505060405180910390f35b610511600480360360208110156104fb57600080fd5b81019080803590602001909291905050506110e4565b005b61071a600480360360c081101561052957600080fd5b810190808035906020019064010000000081111561054657600080fd5b82018360208201111561055857600080fd5b8035906020019184600183028401116401000000008311171561057a57600080fd5b91908080601f016020809104026020016040519081016040528093929190818152602001838380828437600081840152601f19601f82011690508083019250505050505050919291929080359060200190929190803590602001906401000000008111156105e757600080fd5b8201836020820111156105f957600080fd5b8035906020019184600183028401116401000000008311171561061b57600080fd5b91908080601f016020809104026020016040519081016040528093929190818152602001838380828437600081840152601f19601f8201169050808301925050505050505091929192908035906020019064010000000081111561067e57600080fd5b82018360208201111561069057600080fd5b803590602001918460018302840111640100000000831117156106b257600080fd5b91908080601f016020809104026020016040519081016040528093929190818152602001838380828437600081840152601f19601f82011690508083019250505050505050919291929080359060200190929190803515159060200190929190505050611164565b6040518082815260200191505060405180910390f35b61077c6004803603604081101561074657600080fd5b81019080803573ffffffffffffffffffffffffffffffffffffffff169060200190929190803590602001909291905050506115e0565b6040518082815260200191505060405180910390f35b6107de600480360360408110156107a857600080fd5b8101908080359060200190929190803573ffffffffffffffffffffffffffffffffffffffff16906020019092919050505061160e565b005b6107e86118ec565b6040518080602001828103825283818151815260200191508051906020019060200280838360005b8381101561082b578082015181840152602081019050610810565b505050509050019250505060405180910390f35b61088b6004803603604081101561085557600080fd5b8101908080359060200190929190803573ffffffffffffffffffffffffffffffffffffffff1690602001909291905050506119d8565b604051808215151515815260200191505060405180910390f35b6108d1600480360360208110156108bb57600080fd5b8101908080359060200190929190505050611a83565b6040518080602001828103825283818151815260200191508051906020019060200280838360005b838110156109145780820151818401526020810190506108f9565b505050509050019250505060405180910390f35b6109746004803603604081101561093e57600080fd5b8101908080359060200190929190803573ffffffffffffffffffffffffffffffffffffffff169060200190929190505050611b52565b005b6109a26004803603602081101561098c57600080fd5b8101908080359060200190929190505050611d4e565b604051808a81526020018060200189815260200180602001806020018881526020018773ffffffffffffffffffffffffffffffffffffffff1673ffffffffffffffffffffffffffffffffffffffff1681526020018681526020018515151515815260200184810384528c818151815260200191508051906020019080838360005b83811015610a3e578082015181840152602081019050610a23565b50505050905090810190601f168015610a6b5780820380516001836020036101000a031916815260200191505b5084810383528a818151815260200191508051906020019080838360005b83811015610aa4578082015181840152602081019050610a89565b50505050905090810190601f168015610ad15780820380516001836020036101000a031916815260200191505b50848103825289818151815260200191508051906020019080838360005b83811015610b0a578082015181840152602081019050610aef565b50505050905090810190601f168015610b375780820380516001836020036101000a031916815260200191505b509c5050505050505050505050505060405180910390f35b60008054600181600116156101000203166002900480601f016020809104026020016040519081016040528092919081815260200182805460018160011615610100020316600290048015610be55780601f10610bba57610100808354040283529160200191610be5565b820191906000526020600020905b815481529060010190602001808311610bc857829003601f168201915b505050505081565b60046020528160005260406000208181548110610c0657fe5b906000526020600020016000915091509054906101000a900473ffffffffffffffffffffffffffffffffffffffff1681565b6060600660008373ffffffffffffffffffffffffffffffffffffffff1673ffffffffffffffffffffffffffffffffffffffff168152602001908152602001600020805480602002602001604051908101604052809291908181526020018280548015610cc357602002820191906000526020600020905b815481526020019060010190808311610caf575b50505050509050919050565b6060600560008373ffffffffffffffffffffffffffffffffffffffff1673ffffffffffffffffffffffffffffffffffffffff168152602001908152602001600020805480602002602001604051908101604052809291908181526020018280548015610d5a57602002820191906000526020600020905b815481526020019060010190808311610d46575b50505050509050919050565b600082118015610d7857506001548211155b610d8157600080fd5b3373ffffffffffffffffffffffffffffffffffffffff166002600084815260200190815260200160002060060160009054906101000a900473ffffffffffffffffffffffffffffffffffffffff1673ffffffffffffffffffffffffffffffffffffffff1614610def57600080fd5b60008090505b815181101561107c57600360008481526020019081526020016000206000838381518110610e1f57fe5b602002602001015173ffffffffffffffffffffffffffffffffffffffff1673ffffffffffffffffffffffffffffffffffffffff16815260200190815260200160002060009054906101000a900460ff1661106f576001600360008581526020019081526020016000206000848481518110610e9657fe5b602002602001015173ffffffffffffffffffffffffffffffffffffffff1673ffffffffffffffffffffffffffffffffffffffff16815260200190815260200160002060006101000a81548160ff02191690831515021790555060046000848152602001908152602001600020828281518110610f0e57fe5b602002602001015190806001815401808255809150509060018203906000526020600020016000909192909190916101000a81548173ffffffffffffffffffffffffffffffffffffffff021916908373ffffffffffffffffffffffffffffffffffffffff1602179055505060066000838381518110610f8957fe5b602002602001015173ffffffffffffffffffffffffffffffffffffffff1673ffffffffffffffffffffffffffffffffffffffff16815260200190815260200160002083908060018154018082558091505090600182039060005260206000200160009091929091909150555081818151811061100157fe5b602002602001015173ffffffffffffffffffffffffffffffffffffffff163373ffffffffffffffffffffffffffffffffffffffff16847fcb51fd7c2cd396fa1f987a53a9298fa36a0239b91227b77945cada420790071e426040518082815260200191505060405180910390a45b8080600101915050610df5565b505050565b60015481565b60036020528160005260406000206020528060005260406000206000915091509054906101000a900460ff1681565b600560205281600052604060002081815481106110cf57fe5b90600052602060002001600091509150505481565b6000811180156110f657506001548111155b6110ff57600080fd5b61110981336119d8565b61111257600080fd5b3373ffffffffffffffffffffffffffffffffffffffff16817f29f2c84c9cd7186f87de7fc5ca57b017e9eefb2797aea3844e4e0a944f873c49426040518082815260200191505060405180910390a350565b60008087511161117357600080fd5b600085511161118157600080fd5b600073ffffffffffffffffffffffffffffffffffffffff163373ffffffffffffffffffffffffffffffffffffffff1614156111bb57600080fd5b600086116111c857600080fd5b60016000815480929190600101919050555060405180610120016040528060015481526020018881526020018781526020018681526020018581526020014281526020013373ffffffffffffffffffffffffffffffffffffffff16815260200184815260200183151581525060026000600154815260200190815260200160002060008201518160000155602082015181600101908051906020019061126f929190611f91565b50604082015181600201556060820151816003019080519060200190611296929190611f91565b5060808201518160040190805190602001906112b3929190611f91565b5060a0820151816005015560c08201518160060160006101000a81548173ffffffffffffffffffffffffffffffffffffffff021916908373ffffffffffffffffffffffffffffffffffffffff16021790555060e082015181600701556101008201518160080160006101000a81548160ff021916908315150217905550905050600160036000600154815260200190815260200160002060003373ffffffffffffffffffffffffffffffffffffffff1673ffffffffffffffffffffffffffffffffffffffff16815260200190815260200160002060006101000a81548160ff021916908315150217905550600560003373ffffffffffffffffffffffffffffffffffffffff1673ffffffffffffffffffffffffffffffffffffffff16815260200190815260200160002060015490806001815401808255809150509060018203906000526020600020016000909192909190915055503373ffffffffffffffffffffffffffffffffffffffff166001547f62c3b373e3ab881bc29024c11ae1b632b8cd20aa6dac0123db8687b76db27fb489898989428a8a60405180806020018881526020018060200180602001806020018881526020018781526020018615151515815260200185810385528c818151815260200191508051906020019080838360005b838110156114b3578082015181840152602081019050611498565b50505050905090810190601f1680156114e05780820380516001836020036101000a031916815260200191505b5085810384526000815260200160200185810383528a818151815260200191508051906020019080838360005b8381101561152857808201518184015260208101905061150d565b50505050905090810190601f1680156115555780820380516001836020036101000a031916815260200191505b50858103825289818151815260200191508051906020019080838360005b8381101561158e578082015181840152602081019050611573565b50505050905090810190601f1680156115bb5780820380516001836020036101000a031916815260200191505b509b50505050505050505050505060405180910390a360015490509695505050505050565b600660205281600052604060002081815481106115f957fe5b90600052602060002001600091509150505481565b60008211801561162057506001548211155b61162957600080fd5b3373ffffffffffffffffffffffffffffffffffffffff166002600084815260200190815260200160002060060160009054906101000a900473ffffffffffffffffffffffffffffffffffffffff1673ffffffffffffffffffffffffffffffffffffffff161461169757600080fd5b600073ffffffffffffffffffffffffffffffffffffffff168173ffffffffffffffffffffffffffffffffffffffff1614156116d157600080fd5b6003600083815260200190815260200160002060008273ffffffffffffffffffffffffffffffffffffffff1673ffffffffffffffffffffffffffffffffffffffff16815260200190815260200160002060009054906101000a900460ff161561173957600080fd5b60016003600084815260200190815260200160002060008373ffffffffffffffffffffffffffffffffffffffff1673ffffffffffffffffffffffffffffffffffffffff16815260200190815260200160002060006101000a81548160ff021916908315150217905550600460008381526020019081526020016000208190806001815401808255809150509060018203906000526020600020016000909192909190916101000a81548173ffffffffffffffffffffffffffffffffffffffff021916908373ffffffffffffffffffffffffffffffffffffffff16021790555050600660008273ffffffffffffffffffffffffffffffffffffffff1673ffffffffffffffffffffffffffffffffffffffff1681526020019081526020016000208290806001815401808255809150509060018203906000526020600020016000909192909190915055508073ffffffffffffffffffffffffffffffffffffffff163373ffffffffffffffffffffffffffffffffffffffff16837fcb51fd7c2cd396fa1f987a53a9298fa36a0239b91227b77945cada420790071e426040518082815260200191505060405180910390a45050565b606060008090506000600190505b60015481116119385760006002600083815260200190815260200160002060070154141561192b5781806001019250505b80806001019150506118fa565b5060608160405190808252806020026020018201604052801561196a5781602001602082028038833980820191505090505b50905060008090506000600190505b60015481116119ce576000600260008381526020019081526020016000206007015414156119c157808383806001019450815181106119b457fe5b6020026020010181815250505b8080600101915050611979565b5081935050505090565b600080831180156119eb57506001548311155b6119f457600080fd5b600060026000858152602001908152602001600020600701541415611a1c5760019050611a7d565b6003600084815260200190815260200160002060008373ffffffffffffffffffffffffffffffffffffffff1673ffffffffffffffffffffffffffffffffffffffff16815260200190815260200160002060009054906101000a900460ff1690505b92915050565b6060600082118015611a9757506001548211155b611aa057600080fd5b611aaa82336119d8565b611ab357600080fd5b60046000838152602001908152602001600020805480602002602001604051908101604052809291908181526020018280548015611b4657602002820191906000526020600020905b8160009054906101000a900473ffffffffffffffffffffffffffffffffffffffff1673ffffffffffffffffffffffffffffffffffffffff1681526020019060010190808311611afc575b50505050509050919050565b600082118015611b6457506001548211155b611b6d57600080fd5b3373ffffffffffffffffffffffffffffffffffffffff166002600084815260200190815260200160002060060160009054906101000a900473ffffffffffffffffffffffffffffffffffffffff1673ffffffffffffffffffffffffffffffffffffffff1614611bdb57600080fd5b6003600083815260200190815260200160002060008273ffffffffffffffffffffffffffffffffffffffff1673ffffffffffffffffffffffffffffffffffffffff16815260200190815260200160002060009054906101000a900460ff16611c4257600080fd5b3373ffffffffffffffffffffffffffffffffffffffff168173ffffffffffffffffffffffffffffffffffffffff161415611c7b57600080fd5b60006003600084815260200190815260200160002060008373ffffffffffffffffffffffffffffffffffffffff1673ffffffffffffffffffffffffffffffffffffffff16815260200190815260200160002060006101000a81548160ff0219169083151502179055508073ffffffffffffffffffffffffffffffffffffffff163373ffffffffffffffffffffffffffffffffffffffff16837f44cc0386e2d27cf0a4d53aa262e89d728c4866b8c331db29caa559bd37212557426040518082815260200191505060405180910390a45050565b6002602052806000526040600020600091509050806000015490806001018054600181600116156101000203166002900480601f016020809104026020016040519081016040528092919081815260200182805460018160011615610100020316600290048015611e005780601f10611dd557610100808354040283529160200191611e00565b820191906000526020600020905b815481529060010190602001808311611de357829003601f168201915b505050505090806002015490806003018054600181600116156101000203166002900480601f016020809104026020016040519081016040528092919081815260200182805460018160011615610100020316600290048015611ea45780601f10611e7957610100808354040283529160200191611ea4565b820191906000526020600020905b815481529060010190602001808311611e8757829003601f168201915b505050505090806004018054600181600116156101000203166002900480601f016020809104026020016040519081016040528092919081815260200182805460018160011615610100020316600290048015611f425780601f10611f1757610100808354040283529160200191611f42565b820191906000526020600020905b815481529060010190602001808311611f2557829003601f168201915b5050505050908060050154908060060160009054906101000a900473ffffffffffffffffffffffffffffffffffffffff16908060070154908060080160009054906101000a900460ff16905089565b828054600181600116156101000203166002900490600052602060002090601f016020900481019282601f10611fd257805160ff1916838001178555612000565b82800160010185558215612000579182015b82811115611fff578251825591602001919060010190611fe4565b5b50905061200d9190612011565b5090565b61203391905b8082111561202f576000816000905550600101612017565b5090565b9056fea265627a7a723158202db458d9318eabdd803c06f4df118223c608575648ed1765a2783ec4f52e3c7d64736f6c63430005100032",
  "source": "pragma solidity ^0.5.0;\n\ncontract DStorage {\n  string public name = 'DStorage';\n  uint public fileCount = 0;\n  mapping(uint => File) public files;\n  \n  // Access control mappings\n  mapping(uint => mapping(address => bool)) public fileAccess;\n  mapping(uint => address[]) public fileRecipients;\n  mapping(address => uint[]) public userFiles;\n  mapping(address => uint[]) public sharedWithUser;\n\n  struct File {\n    uint fileId;\n    string fileHash;\n    uint fileSize;\n    string fileName;\n    string fileDescription;\n    uint uploadTime;\n    address uploader;\n    uint accessType;\n    bool isEncrypted;\n  }\n\n  // Events\n  event FileUploaded(\n    uint indexed fileId,\n    string fileHash,\n    uint fileSize,\n    string fileType,\n    string fileName, \n    string fileDescription,\n    uint uploadTime,\n    address indexed uploader,\n    uint accessType,\n    bool isEncrypted\n  );\n\n  event FileShared(uint indexed fileId, address indexed uploader, address indexed recipient, uint timestamp);\n  event FileAccessed(uint indexed fileId, address indexed accessor, uint timestamp);\n  event AccessRevoked(uint indexed fileId, address indexed uploader, address indexed recipient, uint timestamp);\n\n  constructor() public {\n  }\n\n  function uploadFile(\n    string memory _fileHash, \n    uint _fileSize, \n    string memory _fileName,\n    string memory _fileDescription,\n    uint _accessType,\n    bool _isEncrypted\n  ) public returns (uint) {\n    require(bytes(_fileHash).length > 0);\n    require(bytes(_fileName).length > 0);\n    require(msg.sender != address(0));\n    require(_fileSize > 0);\n\n    fileCount++;\n\n    files[fileCount] = File(\n      fileCount, _fileHash, _fileSize, _fileName, \n      _fileDescription, now, msg.sender, _accessType, _isEncrypted\n    );\n\n    fileAccess[fileCount][msg.sender] = true;\n    userFiles[msg.sender].push(fileCount);\n\n    emit FileUploaded(fileCount, _fileHash, _fileSize, \"\", _fileName, _fileDescription, now, msg.sender, _accessType, _isEncrypted);\n\n    return fileCount;\n  }\n\n  function addRecipients(uint _fileId, address[] memory _recipients) public {\n    require(_fileId > 0 && _fileId <= fileCount);\n    require(files[_fileId].uploader == msg.sender);\n\n    for (uint i = 0; i < _recipients.length; i++) {\n      if (!fileAccess[_fileId][_recipients[i]]) {\n        fileAccess[_fileId][_recipients[i]] = true;\n        fileRecipients[_fileId].push(_recipients[i]);\n        sharedWithUser[_recipients[i]].push(_fileId);\n        emit FileShared(_fileId, msg.sender, _recipients[i], now);\n      }\n    }\n  }\n\n  function hasAccess(uint _fileId, address _user) public view returns (bool) {\n    require(_fileId > 0 && _fileId <= fileCount);\n    if (files[_fileId].accessType == 0) return true; // Public\n    return fileAccess[_fileId][_user];\n  }\n\n  function accessFile(uint _fileId) public {\n    require(_fileId > 0 && _fileId <= fileCount);\n    require(hasAccess(_fileId, msg.sender));\n    emit FileAccessed(_fileId, msg.sender, now);\n  }\n\n  function shareFile(uint _fileId, address _recipient) public {\n    require(_fileId > 0 && _fileId <= fileCount);\n    require(files[_fileId].uploader == msg.sender);\n    require(_recipient != address(0));\n    require(!fileAccess[_fileId][_recipient]);\n\n    fileAccess[_fileId][_recipient] = true;\n    fileRecipients[_fileId].push(_recipient);\n    sharedWithUser[_recipient].push(_fileId);\n    emit FileShared(_fileId, msg.sender, _recipient, now);\n  }\n\n  function revokeAccess(uint _fileId, address _recipient) public {\n    require(_fileId > 0 && _fileId <= fileCount);\n    require(files[_fileId].uploader == msg.sender);\n    require(fileAccess[_fileId][_recipient]);\n    require(_recipient != msg.sender);\n\n    fileAccess[_fileId][_recipient] = false;\n    emit AccessRevoked(_fileId, msg.sender, _recipient, now);\n  }\n\n  function getFileRecipients(uint _fileId) public view returns (address[] memory) {\n    require(_fileId > 0 && _fileId <= fileCount);\n    require(hasAccess(_fileId, msg.sender));\n    return fileRecipients[_fileId];\n  }\n\n  function getUserFiles(address _user) public view returns (uint[] memory) {\n    return userFiles[_user];\n  }\n\n  function getSharedFiles(address _user) public view returns (uint[] memory) {\n    return sharedWithUser[_user];\n  }\n\n  function getPublicFiles() public view returns (uint[] memory) {\n    uint count = 0;\n    for (uint i = 1; i <= fileCount; i++) {\n      if (files[i].accessType == 0) count++;\n    }\n    \n    uint[] memory result = new uint[](count);\n    uint index = 0;\n    for (uint i = 1; i <= fileCount; i++) {\n      if (files[i].accessType == 0) result[index++] = i;\n    }\n    return result;\n  }\n}",
  "sourcePath": "/home/goutham-kurapati/Desktop/Fall 2025/Projects/dstorage-ipfs/src/contracts/DStorage.sol",
  "compiler": {
    "name": "solc",
    "version": "0.5.16+commit.9c3226ce.Emscripten.clang"
  },
  "schemaVersion": "3.4.16",
  "updatedAt": "2025-09-22T10:23:23.792Z",
  "networkType": "ethereum",
  "devdoc": {
    "methods": {}
  },
  "userdoc": {
    "methods": {}
  }
}